:100D2A000D0A74656D703A2566000D0A74656D705A
:0D0D3A005F733A2566000D0A493A256600F0
:100D8C0002510000045700000000044B41A0000079
:020D9C00C10B89
:100D9F00439850438920758DFD758BFDD28EC2AC63
:010DAF002221
:080003008F993099FDC299228A
:100CE4008B088A09890AAB08AA09A90A1205436074
:100CF40013050AE50A7002050914F9120543FF12E7
:050D0400000380E22263
:090DCB00D2A1D2A0C2A1C2A02253
:070DD400C2A1D2A0D2A122AE
:030D7900120D62F6
:0F0D7C007FFFD2A030A106AE071FEE70F7C2A016
:010D8B002245
:050DDB00D2A1D2A0220C
:100D4700D2A1E4FED2A0EF25E0FF30A103430701C3
:0A0D5700C2A00EBE08EED2A1C2A099
:010D6100226F
:100D6200E4FEEF3392A1EF25E0FFD2A0C2A00EBEB7
:060D720008F0D2A1C2A0AE
:010D78002258
:020D0900AD0734
:100D0B00120DCB7F90120D79AF05120D79120DCB11
:0E0D1B007F91120D62120D7C120D47120DD445
:010D290022A7
:03000B00020B4D98
:100B4D00C0E0C0F0C083C082C0D075D000C000C06E
:100B5D0001C002C003C004C005C006C007758CF7F4
:100B6D00758A5C055FE55FC394C85003020C16756A
:100B7D005F000522E52294065003020C167F4012F9
:100B8D000D097560008F61AC60AD61E412031EE468
:100B9D00FBFA79A07840120106E4FBFA797F7843DD
:100BAD0012020F8F5E8E5D8D5C8C5B7FCD7ECC7D5A
:100BBD00207CC0AB5EAA5DA95CA85B120015E4FBAE
:100BCD00FA79AA78431201067BCD7ACC79CC783F9D
:100BDD0012020F8F568E558D548C53AF5EAE5DAD98
:100BED005CAC5BE55225E025E02423F81205A90550
:100BFD0052E55270020551C3940AE5519400400626
:100C0D00755100755200752200D007D006D005D061
:100C1D0004D003D002D001D000D0D0D082D083D068
:040C2D00F0D0E032F1
:100DB000758901758CF7758A5CD28CD2A9D2AF2265
:0B0DC000EF1FAC0670011E4C70F62205
:100A5A00120DB0120D9F120DDBD29920903C3090EE
:100A6A00FDAF4EAE4DAD4CAC4BE4FBFA7980783F0E
:100A7A001200158F4E8E4D8D4C8C4BE4FFFE7D4837
:100A8A007C43AB4EAA4DA94CA84B1202AC400BE4D6
:100A9A00F54EF54D754C48754B4320913A3091FD12
:100AAA00AF4EAE4DAD4CAC4BE4FBFA798078BF1239
:100ABA0000158F4E8E4D8D4C8C4BE4FFFEFDFCAB2A
:100ACA004EAA4DA94CA84B1202AC60025009E4F59B
:100ADA004EF54DF54CF54BAF4EAE4DAD4CAC4BAB68
:100AEA0056AA55A954A8531202AC4004C2948002D3
:100AFA00D294D2997BFF7A0D792A855668855567F3
:100B0A0085546685536512064D7BFF7A0D793485C7
:100B1A004E68854D67854C66854B6512064DC299B0
:100B2A00D2997BFF7A0D7940855E68855D67855C21
:100B3A0066855B6512064DC2997F207E4E120DC0F6
:030B4A00020A6537
:10000E0002038CE86480F8E933E83360110460F091
:10001E00ED33EC337009E8FCE9FDEAFEEBFF220458
:10002E0060DED3EB9FEA9EE99DE8C2E78CF0C2F753
:10003E0095F0400CE8CCF8E9CDF9EACEFAEBCFFB1F
:10004E0012035785D0F05804700320D5B3E804701E
:10005E00075002B2D502039692D5EC0460F7E4CCB9
:10006E00C0E0C398F8603B94186008400DD0E0FBE8
:10007E0002036EE4FBFAC9FC8028E830E406E4C90A
:10008E00FBE4CAFCE830E305E4C9CACBFCE854073C
:10009E006010F8C3E913F9EA13FAEB13FBEC13FC47
:1000AE00D8F130F52FC3E49CFCEF9BFFEE9AFEEDEA
:1000BE0099FDD0E0FBEF4E4D4C701222DB03020394
:1000CE0093EC2CFCEF33FFEE33FEED33FDED30E71A
:1000DE00EB02036EEF2BFFEE3AFEED39FDD0E0FBA7
:1000EE0050130BBB0003020396ED13FDEE13FEEF50
:0800FE0013FFEC13FC02036E7A
:10010600EC4D6011E8497017ED33EC3304600DE4F3
:10011600FCFFFEFD22E933E8330470F802038C127B
:10012600035758046009E4CC24815006285009027C
:100136000396284003020393C0E0EB4A7044B9805B
:1001460006D0E0FB020382EF4E701CBD8008EBFF79
:10015600EAFEE9FD80EBE98DF0A4FEE5F00201EF91
:10016600E9CDF9EAFEEBFFEF89F0A4FCE5F0CE89D4
:10017600F0A42EFFE435F0CD89F0A42DFEE435F091
:100186008067EF4E7005BD80D780C3EF8BF0A4ACBF
:10019600F0EE8BF0A42CFCE435F0F8EF8AF0A42CFA
:1001A600E5F038FCE433CB8DF0A42CFCE5F03BF80D
:1001B600EE8AF0A42CFCE5F038F8E433CF89F0A4FD
:1001C6002CFCE5F038CF3400CE89F0A42FFFE5F003
:1001D6003EFEE433C98DF0A42EFEE5F039CD8AF05B
:1001E600A42FFFE5F03EFEE43DFD33D0E0FB5007D3
:1001F6000BBB000F020396EC2CFCEF33FFEE33FE35
:06020600ED33FD02036E62
:10020C00020396EC5D046005E85904700302038C4C
:10021C00120357580460F6EC4860F2EC7004FDFED3
:10022C00FF22C860DB2481C85009C39860025006C5
:10023C000203939850CAF582E9294B4A7005AB82A8
:10024C0002038275F0007C1A7880C3EF9BEE9AED66
:10025C0099400DC3EF9BFFEE9AFEED99FDE842F03D
:10026C00DC23ACF0D0E0FFD0E0FED0E0FDAB822090
:10027C00E7101BEB60BAEC2CFCEF33FFEE33FEED1A
:10028C0033FD02036EE803F830E705C0F075F000AB
:10029C00EF2FFFEE33FEED33FD40B830E7C280AAFE
:1002AC0074F8CC6480CCC86480C8F582046043C305
:1002BC00EB9FF5F0EA9E42F0E99D42F0E89C45F098
:1002CC0060305018E5825FFFE582F42B5582FB50BD
:1002DC00210ABA001D09B90019088016E5825BFBDA
:1002EC00E582F42F5582FF50090EBE00050DBD00AE
:1002FC00010CC3EB9FF5F0EA9E42F0E99D42F0E859
:0D030C009C45F06007CC4820E701B3EC22CF
:1003190075F020800E75F010800575F0087D007E5F
:10032900007F003392D530D50312059BEC33401082
:10033900EF33FFEE33FEED33FDEC33FCD5F0ED2268
:0E034900E5F0247EA2D513CC92E7CDCEFF22A4
:1005EB00E5792465F8E605792278623007027865AB
:1005FB00E475F0011205B50205432000EB7F2ED206
:10060B00008018EF540F2490D43440D4FF30040BE7
:10061B00EF24BFB41A0050032461FFE57A60021582
:10062B007A057DE57D7002057C30070D7862E475F7
:10063B00F0011205B5EF020589020CBD7403D20758
:10064B008003E4C207F5798B628A638964E4F57AE7
:10065B00F57CF57DE57A60077F2012062680F5751F
:10066B007BFFC201C200C202C203C205C206C2089E
:10067B001205F4FF700D3007057F00120637AF7DB2
:10068B00AE7C22B4255FC2D5C2041205F4FF24D080
:10069B00B40A00501A75F00A787A30D50508B6FFFF
:1006AB000106C6A426F620D5047002D20380D924F5
:1006BB00CFB41A00EF5004C2E5D204020924D201D0
:1006CB0080C6D20080C0D20280BCD2D580BAD205FF
:1006DB0080B47F201206262002077401B57A0040F1
:1006EB00F11205EBFF12062602065FD208D2068036
:1006FB00951205EBFB1205EBFA1205EBF94A4B7061
:10070B0006791B7A0A7BFF20022EE57A602A7E008F
:10071B008E8275830012055C60060EEE657B70F0B1
:10072B00C2D5EBC0E0EAC0E0E9C0E0EE120984D02C
:10073B00E0F9D0E0FAD0E0FB120543FF60AAEBC072
:10074B00E0EAC0E0E9C0E0120626D0E02401F9D0CF
:10075B00E03400FAD0E0FBE57B0460DCD57BD9808C
:10076B0087D20280A212096760F7E57B7001041241
:10077B0003A1A97B600DE57B600914F57B120A0EC2
:10078B00EF60F3EA30E702F404C3995077EAF425FB
:10079B007B0430E701E404F57B800D12096760C12F
:1007AB00EA057B257B1203A1EA7878F630E701E4B2
:1007BB00257B04D57B0420050114120984E4C0E0D9
:1007CB00120A0E7878E6601320E70714F612060E6D
:1007DB00802204F6D0E014C0E07F0012060EE57B09
:1007EB006007120605157B800B300503120605D03A
:1007FB00E002065FD0E00480C512096760A0E57BCC
:10080B00041203A17878EAF6E57B20050260010467
:05081B00240412098411
:1008200074FF04C0E0120A0E12060EE57B200502DA
:100830006003120605D0E0B57BE87F451206187804
:1008400078E67F2B30E7047F2DF404C0E012062603
:10085000D0E075F00A84C0F012060FD0E012060F47
:1008600002065F791080027908C206C2088008D2A9
:10087000D5790A8004790AC2D5E57B047002F57B3C
:10088000E4FAFDFEFF1205EBFC7B082001131205C4
:10089000EBFD7B1030000A1205EBFE1205EBFF7B2F
:1008A00020EC3382D592D55013C3E43000069FFF6D
:1008B000E49EFEE42001039DFDE49CFCE4CBF8C231
:1008C00001EC700CCFCECDCCE824F8F870F3801793
:1008D000C3EF33FFEE33FEED33FDEC33FCEB33FBC4
:1008E000994002FB0FD8E9EB300105F8D0E0C4488D
:1008F000B201C0E00AEC4D4E4F78207B0070C2EA96
:10090000B57B0040BCC0E0120986D0F0D0E02001E9
:1009100004C4C0E0C4B201C0F012060FD0F0D5F09C
:10092000EB02065F1205C506FC5308635806CD4C62
:1009300006C94208674F086F44086F4906E243083A
:10094000755507A6460804450770470A3B5006D16F
:100950002D06D52E06F82B06D92306F6200A242AC2
:10096000069148000006F0E57BB4FF03757B061294
:1009700005EBFC1205EBFD1205EBFE1205EBFF7813
:10098000710203D0790AA2D5200314300509B910E9
:10099000020404B9080104A2D52006025001042073
:1009A00002689202B57A005034C0E07F203003190B
:1009B0007F30A20272067205500F1209DDC202C218
:1009C00006C205C2087F30800F300503E9C0E0127F
:1009D0000626300503D0E0F9D0E0B57ACC30051713
:1009E0007F30B9100C1206267F583004077F7880BC
:1009F00003B908031206263002057F2D0206267F62
:100A0000202008F87F2B2006F322920280CF7F005F
:100A1000B4070050052471F8E6FF22286E756C6C4F
:100A20002900D2011205EB3001F8C201787A30D5E5
:100A30000108F60206912D504349581205EB240394
:100A4000B405004001E4900A3693120617743A1276
:0A0A50000617D203757A040208634A
:10035700E9D2E7C933E833F892D5EDD2E7CD33ECEC
:0703670033FC5002B2D52265
:10036E00EC30E7100FBF000C0EBE00080DBD0004F0
:10037E000BEB6014A2D5EB13FCED92E7FD2274FF9C
:10038E00FCFDFEFF22E480F8A2D574FF13FC7D80F5
:03039E00E480EF09
:1003A100F920E72824F950037907E4F42402FB1823
:1003B100DBFDE624FB5014E9600DE4F618E604F6D3
:0F03C100B40A08E4F6D9F57401F60A22C2D5226F
:1003D000ED33EC3392D5FA602AB4FF33EDC2E77BFC
:1003E000FF60067A0379F5E4227A0379FE20D504CA
:1003F0007A0379F9224E614E002B494E46002D4971
:100400004E4600E47A08F608DAFC7B00740722E81E
:10041000C0E0ECC0E0EDC0E0EEC0E0EFC0E0EA75A7
:10042000F010A4CAABF075F04DA42BFBE435F0FC42
:10043000EA2410FAEB34C5FBEC34D9FCEDC2E7FF3B
:1004400075F056A4F42411C5F0F434C58FF0A42A35
:10045000E5F03BE43CF620E714120503D0E0FFD0C2
:10046000E0FED0E0FDD0E0FC12020F8014F4041294
:100470000503D0E0FFD0E0FED0E0FDD0E0FC1201AB
:1004800006D0E0F8E6FAEDD2E7CD33EC332482FB78
:10049000E4C3CF33CFCE33CECD33CD33DBF37B07C5
:1004A00075F00A846004F6081B0AE5F0F6088FF080
:1004B000740AA4FFACF08EF0740AA42CFEACF050C9
:1004C000010C8DF0740AA42CFDE435F0F608DBDE97
:0304D0007407228C
:1004D3003F8000004120000042C80000447A000031
:1004E300461C400047C35000497424004B189680B3
:1004F3004CBEBC205A0E1BCA6753C21C749DC5AEAA
:10050300FB60065407601C2323120531EB5438604B
:100513000912051D12052C120106ECF8EDF9EEFA8D
:10052300EFCB22EB12052C80F1543803241C9004EA
:10053300D3FE93FC0EEE93FD0EEE930ECE93FF22AD
:03000000020C31BE
:0C0C3100787FE4F6D8FD75817D020C7818
:10054300BB010689828A83E0225002E722BBFE02B6
:09055300E32289828A83E49322E9
:10055C00BB010CE58229F582E5833AF583E0225054
:10056C0006E92582F8E622BBFE06E92582F8E2229E
:0D057C00E58229F582E5833AF583E49322B8
:10058900BB010689828A83F0225002F722BBFE0151
:02059900F3224B
:0E059B00C3E49FFFE49EFEE49DFDE49CFC2271
:0C05A900ECF608EDF608EEF608EFF6227E
:1005B500FAE6FB0808E6F925F0F618E6CA3AF62247
:1005C500D083D082F8E4937012740193700DA3A3C5
:1005D50093F8740193F5828883E4737402936860D9
:0605E500EFA3A3A380DFD9
:100CBD00EFB40A07740D120CC8740A309811A89974
:100CCD00B8130CC2983098FDA899C298B811F63097
:070CDD0099FDC299F599226F
:100C3D00020A5AE493A3F8E493A34003F68001F269
:100C4D0008DFF48029E493A3F85407240CC8C333B8
:100C5D00C4540F4420C8834004F456800146F6DF87
:100C6D00E4800B0102040810204080900D8CE47E7E
:100C7D00019360BCA3FF543F30E509541FFEE4937C
:100C8D00A360010ECF54C025E060A840B8E493A343
:100C9D00FAE493A3F8E493A3C8C582C8CAC583CA6E
:100CAD00F0A3C8C582C8CAC583CADFE9DEE780BE26
:010D9E000054
:00000001FF
